{"abi":[{"type":"constructor","inputs":[{"name":"initialOwner","type":"address","internalType":"address"}],"stateMutability":"nonpayable"},{"type":"function","name":"getFingerprint","inputs":[{"name":"hashValue","type":"string","internalType":"string"}],"outputs":[{"name":"","type":"tuple","internalType":"struct FingerprintRegistry.Fingerprint","components":[{"name":"hashValue","type":"string","internalType":"string"},{"name":"language","type":"string","internalType":"string"},{"name":"framework","type":"string","internalType":"string"},{"name":"severity","type":"string","internalType":"string"},{"name":"errorType","type":"string","internalType":"string"},{"name":"matchCount","type":"uint256","internalType":"uint256"},{"name":"fixCount","type":"uint256","internalType":"uint256"},{"name":"timestamp","type":"uint256","internalType":"uint256"}]}],"stateMutability":"view"},{"type":"function","name":"getFingerprintCount","inputs":[],"outputs":[{"name":"","type":"uint256","internalType":"uint256"}],"stateMutability":"view"},{"type":"function","name":"getFix","inputs":[{"name":"fixId","type":"uint256","internalType":"uint256"}],"outputs":[{"name":"","type":"tuple","internalType":"struct FingerprintRegistry.Fix","components":[{"name":"id","type":"uint256","internalType":"uint256"},{"name":"fingerprintHash","type":"string","internalType":"string"},{"name":"submitter","type":"address","internalType":"address"},{"name":"titleHash","type":"bytes32","internalType":"bytes32"},{"name":"descriptionHash","type":"bytes32","internalType":"bytes32"},{"name":"upvotes","type":"uint256","internalType":"uint256"},{"name":"downvotes","type":"uint256","internalType":"uint256"},{"name":"trustScore","type":"int256","internalType":"int256"},{"name":"timestamp","type":"uint256","internalType":"uint256"}]}],"stateMutability":"view"},{"type":"function","name":"owner","inputs":[],"outputs":[{"name":"","type":"address","internalType":"address"}],"stateMutability":"view"},{"type":"function","name":"publishFingerprint","inputs":[{"name":"hashValue","type":"string","internalType":"string"},{"name":"language","type":"string","internalType":"string"},{"name":"framework","type":"string","internalType":"string"},{"name":"severity","type":"string","internalType":"string"},{"name":"errorType","type":"string","internalType":"string"}],"outputs":[],"stateMutability":"nonpayable"},{"type":"function","name":"renounceOwnership","inputs":[],"outputs":[],"stateMutability":"nonpayable"},{"type":"function","name":"reportMatch","inputs":[{"name":"hashValue","type":"string","internalType":"string"}],"outputs":[],"stateMutability":"nonpayable"},{"type":"function","name":"submitFix","inputs":[{"name":"fingerprintHash","type":"string","internalType":"string"},{"name":"titleHash","type":"bytes32","internalType":"bytes32"},{"name":"descriptionHash","type":"bytes32","internalType":"bytes32"},{"name":"submitter","type":"address","internalType":"address"}],"outputs":[{"name":"","type":"uint256","internalType":"uint256"}],"stateMutability":"nonpayable"},{"type":"function","name":"transferOwnership","inputs":[{"name":"newOwner","type":"address","internalType":"address"}],"outputs":[],"stateMutability":"nonpayable"},{"type":"function","name":"vote","inputs":[{"name":"fixId","type":"uint256","internalType":"uint256"},{"name":"voter","type":"address","internalType":"address"},{"name":"successful","type":"bool","internalType":"bool"}],"outputs":[],"stateMutability":"nonpayable"},{"type":"event","name":"FingerprintMatched","inputs":[{"name":"hashValue","type":"string","indexed":true,"internalType":"string"},{"name":"matchCount","type":"uint256","indexed":false,"internalType":"uint256"}],"anonymous":false},{"type":"event","name":"FingerprintPublished","inputs":[{"name":"hashValue","type":"string","indexed":true,"internalType":"string"},{"name":"language","type":"string","indexed":false,"internalType":"string"},{"name":"framework","type":"string","indexed":false,"internalType":"string"},{"name":"severity","type":"string","indexed":false,"internalType":"string"},{"name":"errorType","type":"string","indexed":false,"internalType":"string"},{"name":"matchCount","type":"uint256","indexed":false,"internalType":"uint256"}],"anonymous":false},{"type":"event","name":"FixSubmitted","inputs":[{"name":"fixId","type":"uint256","indexed":true,"internalType":"uint256"},{"name":"fingerprintHash","type":"string","indexed":true,"internalType":"string"},{"name":"submitter","type":"address","indexed":true,"internalType":"address"},{"name":"titleHash","type":"bytes32","indexed":false,"internalType":"bytes32"},{"name":"descriptionHash","type":"bytes32","indexed":false,"internalType":"bytes32"}],"anonymous":false},{"type":"event","name":"FixVoted","inputs":[{"name":"fixId","type":"uint256","indexed":true,"internalType":"uint256"},{"name":"voter","type":"address","indexed":true,"internalType":"address"},{"name":"successful","type":"bool","indexed":false,"internalType":"bool"},{"name":"trustScore","type":"int256","indexed":false,"internalType":"int256"}],"anonymous":false},{"type":"event","name":"OwnershipTransferred","inputs":[{"name":"previousOwner","type":"address","indexed":true,"internalType":"address"},{"name":"newOwner","type":"address","indexed":true,"internalType":"address"}],"anonymous":false},{"type":"error","name":"OwnableInvalidOwner","inputs":[{"name":"owner","type":"address","internalType":"address"}]},{"type":"error","name":"OwnableUnauthorizedAccount","inputs":[{"name":"account","type":"address","internalType":"address"}]}],"bytecode":{"object":"0x60806040526001600555348015610014575f80fd5b5060405161185b38038061185b833981016040819052610033916100c0565b806001600160a01b03811661006157604051631e4fbdf760e01b81525f600482015260240160405180910390fd5b61006a81610071565b50506100ed565b5f80546001600160a01b038381166001600160a01b0319831681178455604051919092169283917f8be0079c531659141344cd1fd0a4f28419497f9722a3daafe3b4186f6b6457e09190a35050565b5f602082840312156100d0575f80fd5b81516001600160a01b03811681146100e6575f80fd5b9392505050565b611761806100fa5f395ff3fe608060405234801561000f575f80fd5b506004361061009b575f3560e01c80638aaa51d7116100635780638aaa51d7146101185780638da5cb5b1461012a578063e2cdd42a14610144578063e647c18e14610157578063f2fde38b1461016a575f80fd5b80630d81a8c81461009f5780630fd4668d146100b457806321a2358e146100dd5780635cdf0397146100f0578063715018a614610110575b5f80fd5b6100b26100ad36600461105c565b61017d565b005b6100c76100c236600461109b565b610297565b6040516100d491906110f5565b60405180910390f35b6100b26100eb366004611184565b6103f9565b6101036100fe36600461105c565b610733565b6040516100d4919061126a565b6100b2610a9a565b6002545b6040519081526020016100d4565b5f546040516001600160a01b0390911681526020016100d4565b6100b2610152366004611344565b610aad565b61011c610165366004611385565b610cd9565b6100b26101783660046113e7565b610f5f565b610185610f9c565b60018282604051610197929190611407565b9081526020016040518091039020600701545f036101f25760405162461bcd60e51b81526020600482015260136024820152721d5b9adb9bdddb88199a5b99d95c9c1c9a5b9d606a1b60448201526064015b60405180910390fd5b6001808383604051610205929190611407565b90815260200160405180910390206005015f828254610224919061142a565b90915550506040516102399083908390611407565b60405180910390207f3781aebd0bd7ebde046c350aa538682ba7b6459217ce60939ececbff04fde3aa60018484604051610274929190611407565b908152604051602091819003820181206005015481520160405180910390a25050565b6102ed6040518061012001604052805f8152602001606081526020015f6001600160a01b031681526020015f80191681526020015f80191681526020015f81526020015f81526020015f81526020015f81525090565b60035f8381526020019081526020015f20604051806101200160405290815f82015481526020016001820180546103239061143d565b80601f016020809104026020016040519081016040528092919081815260200182805461034f9061143d565b801561039a5780601f106103715761010080835404028352916020019161039a565b820191905f5260205f20905b81548152906001019060200180831161037d57829003601f168201915b505050918352505060028201546001600160a01b03166020820152600382015460408201526004820154606082015260058201546080820152600682015460a0820152600782015460c082015260089091015460e09091015292915050565b610401610f9c565b8861043e5760405162461bcd60e51b815260206004820152600d60248201526c1a185cda081c995c5d5a5c9959609a1b60448201526064016101e9565b60018a8a604051610450929190611407565b9081526020016040518091039020600701545f146104a45760405162461bcd60e51b8152602060048201526011602482015270185b1c9958591e481c1d589b1a5cda1959607a1b60448201526064016101e9565b6040518061010001604052808b8b8080601f0160208091040260200160405190810160405280939291908181526020018383808284375f92019190915250505090825250604080516020601f8c018190048102820181019092528a815291810191908b908b90819084018382808284375f92019190915250505090825250604080516020601f8a01819004810282018101909252888152918101919089908990819084018382808284375f92019190915250505090825250604080516020601f8801819004810282018101909252868152918101919087908790819084018382808284375f92019190915250505090825250604080516020601f8601819004810282018101909252848152918101919085908590819084018382808284375f92018290525093855250506001602084018190526040808501939093524260609094019390935250516105f9908d908d90611407565b9081526040519081900360200190208151819061061690826114d5565b506020820151600182019061062b90826114d5565b506040820151600282019061064090826114d5565b506060820151600382019061065590826114d5565b506080820151600482019061066a90826114d5565b5060a0820151600582015560c0820151600682015560e090910151600790910155600280546001810182555f919091527f405787fa12a823e0f2b7631cc41b3ba8828b3321ca811111fa75cd3aa3bb5ace016106c78a8c83611595565b5089896040516106d8929190611407565b60405180910390207e651d98b3de27f5465929aa3780b26bdc50d1c39ee25ace6c89769d520f7c978989898989898989600160405161071f99989796959493929190611677565b60405180910390a250505050505050505050565b61077860405180610100016040528060608152602001606081526020016060815260200160608152602001606081526020015f81526020015f81526020015f81525090565b6001838360405161078a929190611407565b9081526020016040518091039020604051806101000160405290815f820180546107b39061143d565b80601f01602080910402602001604051908101604052809291908181526020018280546107df9061143d565b801561082a5780601f106108015761010080835404028352916020019161082a565b820191905f5260205f20905b81548152906001019060200180831161080d57829003601f168201915b505050505081526020016001820180546108439061143d565b80601f016020809104026020016040519081016040528092919081815260200182805461086f9061143d565b80156108ba5780601f10610891576101008083540402835291602001916108ba565b820191905f5260205f20905b81548152906001019060200180831161089d57829003601f168201915b505050505081526020016002820180546108d39061143d565b80601f01602080910402602001604051908101604052809291908181526020018280546108ff9061143d565b801561094a5780601f106109215761010080835404028352916020019161094a565b820191905f5260205f20905b81548152906001019060200180831161092d57829003601f168201915b505050505081526020016003820180546109639061143d565b80601f016020809104026020016040519081016040528092919081815260200182805461098f9061143d565b80156109da5780601f106109b1576101008083540402835291602001916109da565b820191905f5260205f20905b8154815290600101906020018083116109bd57829003601f168201915b505050505081526020016004820180546109f39061143d565b80601f0160208091040260200160405190810160405280929190818152602001828054610a1f9061143d565b8015610a6a5780601f10610a4157610100808354040283529160200191610a6a565b820191905f5260205f20905b815481529060010190602001808311610a4d57829003601f168201915b50505050508152602001600582015481526020016006820154815260200160078201548152505090505b92915050565b610aa2610f9c565b610aab5f610fc8565b565b610ab5610f9c565b5f838152600360205260408120600801549003610b025760405162461bcd60e51b815260206004820152600b60248201526a0eadcd6dcdeeedc40ccd2f60ab1b60448201526064016101e9565b6001600160a01b038216610b495760405162461bcd60e51b815260206004820152600e60248201526d1d9bdd195c881c995c5d5a5c995960921b60448201526064016101e9565b5f8381526004602090815260408083206001600160a01b038616845290915290205460ff1615610bab5760405162461bcd60e51b815260206004820152600d60248201526c185b1c9958591e481d9bdd1959609a1b60448201526064016101e9565b5f8381526004602090815260408083206001600160a01b03861684529091529020805460ff191660011790558015610c2f575f838152600360205260408120600501805460019290610bfe90849061142a565b90915550505f8381526003602052604081206007018054600a9290610c249084906116de565b90915550610c7c9050565b5f838152600360205260408120600601805460019290610c5090849061142a565b90915550505f838152600360205260408120600701805460049290610c76908490611705565b90915550505b5f838152600360209081526040918290206007015482518415158152918201526001600160a01b0384169185917f9d7ec9dcebb65624620d1812f6c395e3f01707ff7e3dfe5b15ef737dfa4f9e55910160405180910390a3505050565b5f610ce2610f9c565b60018686604051610cf4929190611407565b9081526020016040518091039020600701545f03610d4a5760405162461bcd60e51b81526020600482015260136024820152721d5b9adb9bdddb88199a5b99d95c9c1c9a5b9d606a1b60448201526064016101e9565b6001600160a01b038216610d955760405162461bcd60e51b81526020600482015260126024820152711cdd589b5a5d1d195c881c995c5d5a5c995960721b60448201526064016101e9565b60058054906001905f610da8838561142a565b9250508190555060405180610120016040528082815260200188888080601f0160208091040260200160405190810160405280939291908181526020018383808284375f9201829052509385525050506001600160a01b03861660208084019190915260408084018a9052606084018990526080840183905260a0840183905260c084018390524260e0909401939093528482526003815291902082518155908201516001820190610e5a90826114d5565b506040828101516002830180546001600160a01b0319166001600160a01b03909216919091179055606083015160038301556080830151600483015560a0830151600583015560c0830151600683015560e0830151600783015561010090920151600890910155516001908190610ed4908a908a90611407565b90815260200160405180910390206006015f828254610ef3919061142a565b90915550506040516001600160a01b03841690610f139089908990611407565b60408051918290038220888352602083018890529184917f20e0d641d8f6d60ef1e68dcbb58d624b7b9d5a5fd08b18893a49653544b34e78910160405180910390a49695505050505050565b610f67610f9c565b6001600160a01b038116610f9057604051631e4fbdf760e01b81525f60048201526024016101e9565b610f9981610fc8565b50565b5f546001600160a01b03163314610aab5760405163118cdaa760e01b81523360048201526024016101e9565b5f80546001600160a01b038381166001600160a01b0319831681178455604051919092169283917f8be0079c531659141344cd1fd0a4f28419497f9722a3daafe3b4186f6b6457e09190a35050565b5f8083601f840112611027575f80fd5b50813567ffffffffffffffff81111561103e575f80fd5b602083019150836020828501011115611055575f80fd5b9250929050565b5f806020838503121561106d575f80fd5b823567ffffffffffffffff811115611083575f80fd5b61108f85828601611017565b90969095509350505050565b5f602082840312156110ab575f80fd5b5035919050565b5f81518084525f5b818110156110d6576020818501810151868301820152016110ba565b505f602082860101526020601f19601f83011685010191505092915050565b60208152815160208201525f602083015161012080604085015261111d6101408501836110b2565b9150604085015161113960608601826001600160a01b03169052565b5060608501516080850152608085015160a085015260a085015160c085015260c085015160e085015260e0850151610100818187015280870151838701525050508091505092915050565b5f805f805f805f805f8060a08b8d03121561119d575f80fd5b8a3567ffffffffffffffff808211156111b4575f80fd5b6111c08e838f01611017565b909c509a5060208d01359150808211156111d8575f80fd5b6111e48e838f01611017565b909a50985060408d01359150808211156111fc575f80fd5b6112088e838f01611017565b909850965060608d0135915080821115611220575f80fd5b61122c8e838f01611017565b909650945060808d0135915080821115611244575f80fd5b506112518d828e01611017565b915080935050809150509295989b9194979a5092959850565b602081525f82516101008060208501526112886101208501836110b2565b91506020850151601f19808685030160408701526112a684836110b2565b935060408701519150808685030160608701526112c384836110b2565b935060608701519150808685030160808701526112e084836110b2565b935060808701519150808685030160a0870152506112fe83826110b2565b92505060a085015160c085015260c085015160e085015260e085015181850152508091505092915050565b80356001600160a01b038116811461133f575f80fd5b919050565b5f805f60608486031215611356575f80fd5b8335925061136660208501611329565b91506040840135801515811461137a575f80fd5b809150509250925092565b5f805f805f60808688031215611399575f80fd5b853567ffffffffffffffff8111156113af575f80fd5b6113bb88828901611017565b90965094505060208601359250604086013591506113db60608701611329565b90509295509295909350565b5f602082840312156113f7575f80fd5b61140082611329565b9392505050565b818382375f9101908152919050565b634e487b7160e01b5f52601160045260245ffd5b80820180821115610a9457610a94611416565b600181811c9082168061145157607f821691505b60208210810361146f57634e487b7160e01b5f52602260045260245ffd5b50919050565b634e487b7160e01b5f52604160045260245ffd5b601f8211156114d057805f5260205f20601f840160051c810160208510156114ae5750805b601f840160051c820191505b818110156114cd575f81556001016114ba565b50505b505050565b815167ffffffffffffffff8111156114ef576114ef611475565b611503816114fd845461143d565b84611489565b602080601f831160018114611536575f841561151f5750858301515b5f19600386901b1c1916600185901b17855561158d565b5f85815260208120601f198616915b8281101561156457888601518255948401946001909101908401611545565b508582101561158157878501515f19600388901b60f8161c191681555b505060018460011b0185555b505050505050565b67ffffffffffffffff8311156115ad576115ad611475565b6115c1836115bb835461143d565b83611489565b5f601f8411600181146115f2575f85156115db5750838201355b5f19600387901b1c1916600186901b1783556114cd565b5f83815260208120601f198716915b828110156116215786850135825560209485019460019092019101611601565b508682101561163d575f1960f88860031b161c19848701351681555b505060018560011b0183555050505050565b81835281816020850137505f828201602090810191909152601f909101601f19169091010190565b60a081525f61168a60a083018b8d61164f565b828103602084015261169d818a8c61164f565b905082810360408401526116b281888a61164f565b905082810360608401526116c781868861164f565b9150508260808301529a9950505050505050505050565b8082018281125f8312801582168215821617156116fd576116fd611416565b505092915050565b8181035f83128015838313168383128216171561172457611724611416565b509291505056fea2646970667358221220972be90375a9f5f7c5fb49dbeb20c240c4b349b3bbb5e007d541b14cc19208b464736f6c63430008180033","linkReferences":{}},"methodIdentifiers":{"getFingerprint(string)":"5cdf0397","getFingerprintCount()":"8aaa51d7","getFix(uint256)":"0fd4668d","owner()":"8da5cb5b","publishFingerprint(string,string,string,string,string)":"21a2358e","renounceOwnership()":"715018a6","reportMatch(string)":"0d81a8c8","submitFix(string,bytes32,bytes32,address)":"e647c18e","transferOwnership(address)":"f2fde38b","vote(uint256,address,bool)":"e2cdd42a"},"id":19}