{"abi":[{"type":"constructor","inputs":[{"name":"initialOwner","type":"address","internalType":"address"}],"stateMutability":"nonpayable"},{"type":"function","name":"getReputation","inputs":[{"name":"wallet","type":"address","internalType":"address"}],"outputs":[{"name":"","type":"tuple","internalType":"struct ReputationRegistry.Reputation","components":[{"name":"wallet","type":"address","internalType":"address"},{"name":"score","type":"int256","internalType":"int256"},{"name":"successfulFixes","type":"uint256","internalType":"uint256"},{"name":"failedFixes","type":"uint256","internalType":"uint256"},{"name":"updatedAt","type":"uint256","internalType":"uint256"}]}],"stateMutability":"view"},{"type":"function","name":"owner","inputs":[],"outputs":[{"name":"","type":"address","internalType":"address"}],"stateMutability":"view"},{"type":"function","name":"renounceOwnership","inputs":[],"outputs":[],"stateMutability":"nonpayable"},{"type":"function","name":"submitReputation","inputs":[{"name":"wallet","type":"address","internalType":"address"},{"name":"score","type":"int256","internalType":"int256"},{"name":"successfulFixes","type":"uint256","internalType":"uint256"},{"name":"failedFixes","type":"uint256","internalType":"uint256"}],"outputs":[],"stateMutability":"nonpayable"},{"type":"function","name":"transferOwnership","inputs":[{"name":"newOwner","type":"address","internalType":"address"}],"outputs":[],"stateMutability":"nonpayable"},{"type":"function","name":"updateReputation","inputs":[{"name":"wallet","type":"address","internalType":"address"},{"name":"score","type":"int256","internalType":"int256"},{"name":"successfulFixes","type":"uint256","internalType":"uint256"},{"name":"failedFixes","type":"uint256","internalType":"uint256"}],"outputs":[],"stateMutability":"nonpayable"},{"type":"event","name":"OwnershipTransferred","inputs":[{"name":"previousOwner","type":"address","indexed":true,"internalType":"address"},{"name":"newOwner","type":"address","indexed":true,"internalType":"address"}],"anonymous":false},{"type":"event","name":"ReputationSubmitted","inputs":[{"name":"wallet","type":"address","indexed":true,"internalType":"address"},{"name":"score","type":"int256","indexed":false,"internalType":"int256"}],"anonymous":false},{"type":"event","name":"ReputationUpdated","inputs":[{"name":"wallet","type":"address","indexed":true,"internalType":"address"},{"name":"score","type":"int256","indexed":false,"internalType":"int256"},{"name":"successfulFixes","type":"uint256","indexed":false,"internalType":"uint256"},{"name":"failedFixes","type":"uint256","indexed":false,"internalType":"uint256"}],"anonymous":false},{"type":"error","name":"OwnableInvalidOwner","inputs":[{"name":"owner","type":"address","internalType":"address"}]},{"type":"error","name":"OwnableUnauthorizedAccount","inputs":[{"name":"account","type":"address","internalType":"address"}]}],"bytecode":{"object":"0x608060405234801561000f575f80fd5b5060405161060c38038061060c83398101604081905261002e916100bb565b806001600160a01b03811661005c57604051631e4fbdf760e01b81525f600482015260240160405180910390fd5b6100658161006c565b50506100e8565b5f80546001600160a01b038381166001600160a01b0319831681178455604051919092169283917f8be0079c531659141344cd1fd0a4f28419497f9722a3daafe3b4186f6b6457e09190a35050565b5f602082840312156100cb575f80fd5b81516001600160a01b03811681146100e1575f80fd5b9392505050565b610517806100f55f395ff3fe608060405234801561000f575f80fd5b5060043610610060575f3560e01c806355412ea714610064578063562d049c14610079578063715018a61461008c5780638da5cb5b146100945780639c89a0e2146100b3578063f2fde38b1461010c575b5f80fd5b61007761007236600461048b565b61011f565b005b61007761008736600461048b565b610229565b610077610319565b5f546040516001600160a01b0390911681526020015b60405180910390f35b6100c66100c13660046104c1565b61032c565b6040516100aa919081516001600160a01b031681526020808301519082015260408083015190820152606080830151908201526080918201519181019190915260a00190565b61007761011a3660046104c1565b6103b8565b6001600160a01b03841661016c5760405162461bcd60e51b815260206004820152600f60248201526e1dd85b1b195d081c995c5d5a5c9959608a1b60448201526064015b60405180910390fd5b6040805160a0810182526001600160a01b038681168083526020808401888152848601888152606080870189815242608089019081525f8781526001808852908b902099518a546001600160a01b031916991698909817895593519688019690965590516002870155935160038601555160049094019390935583518781529283018690529282018490527fe35f9c182810425ce2ad512d42e43c5ff30b370f73e3277f7fe538adfda2072691015b60405180910390a250505050565b6001600160a01b0384166102715760405162461bcd60e51b815260206004820152600f60248201526e1dd85b1b195d081c995c5d5a5c9959608a1b6044820152606401610163565b6040805160a0810182526001600160a01b0386811680835260208084018881528486018881526060860188815242608088019081525f8681526001808752908a9020985189546001600160a01b0319169816979097178855925195870195909555516002860155925160038501559151600490930192909255915185815290917f8b3d6aea6c44b3bb780dedb246ba6b00945dbb6cbc4e3aa43ae0a445730319ab910161021b565b6103216103f5565b61032a5f610421565b565b6103626040518060a001604052805f6001600160a01b031681526020015f81526020015f81526020015f81526020015f81525090565b506001600160a01b039081165f90815260016020818152604092839020835160a0810185528154909516855291820154908401526002810154918301919091526003810154606083015260040154608082015290565b6103c06103f5565b6001600160a01b0381166103e957604051631e4fbdf760e01b81525f6004820152602401610163565b6103f281610421565b50565b5f546001600160a01b0316331461032a5760405163118cdaa760e01b8152336004820152602401610163565b5f80546001600160a01b038381166001600160a01b0319831681178455604051919092169283917f8be0079c531659141344cd1fd0a4f28419497f9722a3daafe3b4186f6b6457e09190a35050565b80356001600160a01b0381168114610486575f80fd5b919050565b5f805f806080858703121561049e575f80fd5b6104a785610470565b966020860135965060408601359560600135945092505050565b5f602082840312156104d1575f80fd5b6104da82610470565b939250505056fea26469706673582212208db9e4576a063276de1795458bdf5a2d5864166003aa4bf87ab3713d7c5af88c64736f6c63430008180033","linkReferences":{}},"methodIdentifiers":{"getReputation(address)":"9c89a0e2","owner()":"8da5cb5b","renounceOwnership()":"715018a6","submitReputation(address,int256,uint256,uint256)":"562d049c","transferOwnership(address)":"f2fde38b","updateReputation(address,int256,uint256,uint256)":"55412ea7"},"id":20}